{
  "_format": "hh-sol-artifact-1",
  "contractName": "VoterFaceRegistry",
  "sourceName": "contracts/VoterFaceRegistry.sol",
  "abi": [
    {
      "anonymous": false,
      "inputs": [
        {
          "indexed": false,
          "internalType": "string",
          "name": "userId",
          "type": "string"
        },
        {
          "indexed": false,
          "internalType": "string",
          "name": "faceHash",
          "type": "string"
        },
        {
          "indexed": false,
          "internalType": "uint256",
          "name": "time",
          "type": "uint256"
        }
      ],
      "name": "FaceEnrolled",
      "type": "event"
    },
    {
      "anonymous": false,
      "inputs": [
        {
          "indexed": false,
          "internalType": "string",
          "name": "userId",
          "type": "string"
        },
        {
          "indexed": false,
          "internalType": "uint256",
          "name": "time",
          "type": "uint256"
        }
      ],
      "name": "FaceVerified",
      "type": "event"
    },
    {
      "inputs": [
        {
          "internalType": "string",
          "name": "userId",
          "type": "string"
        }
      ],
      "name": "addVerification",
      "outputs": [],
      "stateMutability": "nonpayable",
      "type": "function"
    },
    {
      "inputs": [
        {
          "internalType": "string",
          "name": "userId",
          "type": "string"
        },
        {
          "internalType": "string",
          "name": "faceHash",
          "type": "string"
        }
      ],
      "name": "enrollFace",
      "outputs": [],
      "stateMutability": "nonpayable",
      "type": "function"
    },
    {
      "inputs": [
        {
          "internalType": "string",
          "name": "",
          "type": "string"
        }
      ],
      "name": "faces",
      "outputs": [
        {
          "internalType": "string",
          "name": "faceHash",
          "type": "string"
        },
        {
          "internalType": "uint256",
          "name": "enrolledAt",
          "type": "uint256"
        }
      ],
      "stateMutability": "view",
      "type": "function"
    },
    {
      "inputs": [
        {
          "internalType": "string",
          "name": "userId",
          "type": "string"
        }
      ],
      "name": "getVerificationCount",
      "outputs": [
        {
          "internalType": "uint256",
          "name": "",
          "type": "uint256"
        }
      ],
      "stateMutability": "view",
      "type": "function"
    },
    {
      "inputs": [
        {
          "internalType": "string",
          "name": "",
          "type": "string"
        },
        {
          "internalType": "uint256",
          "name": "",
          "type": "uint256"
        }
      ],
      "name": "verifications",
      "outputs": [
        {
          "internalType": "uint256",
          "name": "time",
          "type": "uint256"
        }
      ],
      "stateMutability": "view",
      "type": "function"
    }
  ],
  "bytecode": "0x608060405234801561001057600080fd5b50610ac0806100206000396000f3fe608060405234801561001057600080fd5b50600436106100575760003560e01c8063634ea6691461005c5780636627fb3f1461008c5780636fd41a12146100bd5780638da1d369146100d9578063979bcb8a14610109575b600080fd5b610076600480360381019061007191906104e8565b610125565b604051610083919061054a565b60405180910390f35b6100a660048036038101906100a191906104e8565b610150565b6040516100b49291906105e4565b60405180910390f35b6100d760048036038101906100d291906104e8565b610212565b005b6100f360048036038101906100ee9190610640565b6102ac565b604051610100919061054a565b60405180910390f35b610123600480360381019061011e919061069c565b6102f9565b005b60006001826040516101379190610750565b9081526020016040518091039020805490509050919050565b60008180516020810182018051848252602083016020850120818352809550505050505060009150905080600001805461018990610796565b80601f01602080910402602001604051908101604052809291908181526020018280546101b590610796565b80156102025780601f106101d757610100808354040283529160200191610202565b820191906000526020600020905b8154815290600101906020018083116101e557829003601f168201915b5050505050908060010154905082565b6001816040516102229190610750565b9081526020016040518091039020604051806020016040528042815250908060018154018082558091505060019003906000526020600020016000909190919091506000820151816000015550507f3967150cc66cf5f3ffc9560bbd06cd5e5539d0552de20855ff27753e81f0d4d181426040516102a19291906105e4565b60405180910390a150565b60018280516020810182018051848252602083016020850120818352809550505050505081815481106102de57600080fd5b90600052602060002001600091509150508060000154905081565b60405180604001604052808281526020014281525060008360405161031e9190610750565b908152602001604051809103902060008201518160000190816103419190610973565b50602082015181600101559050507f84c01345de8dfcdac4533c6984cbad171c164e769370216efd24a3a13f6a9fba82824260405161038293929190610a45565b60405180910390a15050565b6000604051905090565b600080fd5b600080fd5b600080fd5b600080fd5b6000601f19601f8301169050919050565b7f4e487b7100000000000000000000000000000000000000000000000000000000600052604160045260246000fd5b6103f5826103ac565b810181811067ffffffffffffffff82111715610414576104136103bd565b5b80604052505050565b600061042761038e565b905061043382826103ec565b919050565b600067ffffffffffffffff821115610453576104526103bd565b5b61045c826103ac565b9050602081019050919050565b82818337600083830152505050565b600061048b61048684610438565b61041d565b9050828152602081018484840111156104a7576104a66103a7565b5b6104b2848285610469565b509392505050565b600082601f8301126104cf576104ce6103a2565b5b81356104df848260208601610478565b91505092915050565b6000602082840312156104fe576104fd610398565b5b600082013567ffffffffffffffff81111561051c5761051b61039d565b5b610528848285016104ba565b91505092915050565b6000819050919050565b61054481610531565b82525050565b600060208201905061055f600083018461053b565b92915050565b600081519050919050565b600082825260208201905092915050565b60005b8381101561059f578082015181840152602081019050610584565b60008484015250505050565b60006105b682610565565b6105c08185610570565b93506105d0818560208601610581565b6105d9816103ac565b840191505092915050565b600060408201905081810360008301526105fe81856105ab565b905061060d602083018461053b565b9392505050565b61061d81610531565b811461062857600080fd5b50565b60008135905061063a81610614565b92915050565b6000806040838503121561065757610656610398565b5b600083013567ffffffffffffffff8111156106755761067461039d565b5b610681858286016104ba565b92505060206106928582860161062b565b9150509250929050565b600080604083850312156106b3576106b2610398565b5b600083013567ffffffffffffffff8111156106d1576106d061039d565b5b6106dd858286016104ba565b925050602083013567ffffffffffffffff8111156106fe576106fd61039d565b5b61070a858286016104ba565b9150509250929050565b600081905092915050565b600061072a82610565565b6107348185610714565b9350610744818560208601610581565b80840191505092915050565b600061075c828461071f565b915081905092915050565b7f4e487b7100000000000000000000000000000000000000000000000000000000600052602260045260246000fd5b600060028204905060018216806107ae57607f821691505b6020821081036107c1576107c0610767565b5b50919050565b60008190508160005260206000209050919050565b60006020601f8301049050919050565b600082821b905092915050565b6000600883026108297fffffffffffffffffffffffffffffffffffffffffffffffffffffffffffffffff826107ec565b61083386836107ec565b95508019841693508086168417925050509392505050565b6000819050919050565b600061087061086b61086684610531565b61084b565b610531565b9050919050565b6000819050919050565b61088a83610855565b61089e61089682610877565b8484546107f9565b825550505050565b600090565b6108b36108a6565b6108be818484610881565b505050565b5b818110156108e2576108d76000826108ab565b6001810190506108c4565b5050565b601f821115610927576108f8816107c7565b610901846107dc565b81016020851015610910578190505b61092461091c856107dc565b8301826108c3565b50505b505050565b600082821c905092915050565b600061094a6000198460080261092c565b1980831691505092915050565b60006109638383610939565b9150826002028217905092915050565b61097c82610565565b67ffffffffffffffff811115610995576109946103bd565b5b61099f8254610796565b6109aa8282856108e6565b600060209050601f8311600181146109dd57600084156109cb578287015190505b6109d58582610957565b865550610a3d565b601f1984166109eb866107c7565b60005b82811015610a13578489015182556001820191506020850194506020810190506109ee565b86831015610a305784890151610a2c601f891682610939565b8355505b6001600288020188555050505b505050505050565b60006060820190508181036000830152610a5f81866105ab565b90508181036020830152610a7381856105ab565b9050610a82604083018461053b565b94935050505056fea2646970667358221220687704591856a786d268071cd2531aa47a4933927522e5a3b464b065c224300964736f6c63430008140033",
  "linkReferences": {},
  "deployedLinkReferences": {}
}